:020000040800F2
:1000000000000320F9900108499101084991010875
:100010004991010849910108499101080000000037
:1000200000000000000000000000000075640108EE
:100030004991010800000000AD660108F57D010846
:100040004991010849910108499101084991010824
:100050004991010849910108499101084991010814
:100060004991010849910108499101084991010804
:10007000017E01084991010849910108499101084F
:1000800049910108157E010849910108499101082B
:1000900049910108499101084991010849910108D4
:1000A00049910108499101084991010849910108C4
:1000B00049910108499101084991010849910108B4
:1000C00049910108499101084991010849910108A4
:1000D00049910108297E01084991010849910108C7
:1000E0004991010849910108499101084991010884
:1000F0004991010849910108499101084991010874
:100100004991010849910108499101084991010863
:100110004991010849910108499101084991010853
:100120004991010849910108499101084991010843
:100130003D7E010849910108499101084991010852
:100140004991010849910108499101084991010823
:100150004991010849910108499101084991010813
:100160004991010849910108499101084991010803
:1001700049910108499101084991010800000000D6
:1001800049910108499101084991010849910108E3
:1001900049910108499101084991010849910108D3
:0C01A000499101084991010849910108AA
:1001AC00044B05481B1A062B02D9044B03B1184704
:1001BC00704700BF3B040020380400200000000002
:1001CC0005490648091A891001EBD171491002D072
:1001DC00034B03B118477047380400203804002043
:1001EC000000000010B5064C237843B9FFF7D8FF88
:1001FC00044B13B10448AFF300800123237010BDEE
:10020C0038040020000000004C91010808B5084B90
:10021C001BB108490848AFF300800848036813B9BC
:10022C00BDE80840CCE7064B002BF9D09847F7E720
:10023C00000000003C0400204C9101083804002010
:10024C000000000080B582B000AF78607B68002BA6
:10025C0001D101231DE07B6893F83930DBB2002B10
:10026C0006D17B68002283F8382078680CF038FAC5
:10027C007B68022283F839207B681A687B68043318
:10028C001946104603F088F97B68012283F839205F
:10029C00002318460837BD4680BD00BF80B582B02C
:1002AC0000AF78607B68022283F839207B681B687A
:1002BC001A6A41F211131340002B0FD17B681B6893
:1002CC001A6A40F244431340002B07D17B681B6829
:1002DC007A681268126822F001021A6078680CF0D1
:1002EC004DFA7B68002283F839207B68002283F862
:1002FC003820002318460837BD4680BD80B483B033
:10030C0000AF786000BF0C37BD465DF8047B7047CA
:10031C0080B483B000AF786000BF0C37BD465DF889
:10032C00047B704780B483B000AF78607B68022296
:10033C0083F839207B681B687A681268126842F06F
:10034C0001021A607B68012283F8392000231846C9
:10035C000C37BD465DF8047B704700BF80B483B09A
:10036C0000AF78607B68022283F839207B681B68B9
:10037C001A6A41F211131340002B0FD17B681B68D2
:10038C001A6A40F244431340002B07D17B681B6868
:10039C007A681268126822F001021A607B680122E6
:1003AC0083F83920002318460C37BD465DF8047BD2
:1003BC00704700BF80B483B000AF78607B681B6867
:1003CC007A681268D26842F00102DA607B681B68B6
:1003DC007A681268126842F001021A60002318460B
:1003EC000C37BD465DF8047B704700BF80B483B00A
:1003FC0000AF78607B681B687A681268D26822F05C
:10040C000102DA607B681B681A6A41F2111313400F
:10041C00002B0FD17B681B681A6A40F244431340CF
:10042C00002B07D17B681B687A681268126822F06F
:10043C0001021A60002318460C37BD465DF8047B98
:10044C00704700BF80B584B000AFF860B960134648
:10045C00FB80FB6893F83930DBB2022B01D102230D
:10046C0034E0FB6893F83930DBB2012B0BD1BB685D
:10047C00002B04D1FB88002B01D0012326E0FB6864
:10048C00022283F83920FB68DB69124ADA63FB68C5
:10049C00DB69114A9A64FB68D869B968FB681B6808
:1004AC002C331A46FB880CF0ABFBFB681B68FA6814
:1004BC001268D26842F48072DA60FB681B68FA68D2
:1004CC001268126842F001021A60002318461037B5
:1004DC00BD4680BD2D3A00085139000880B483B068
:1004EC0000AF78607B681B687A681268D26822F467
:1004FC008072DA607B681B681A6A41F21113134030
:10050C00002B0FD17B681B681A6A40F244431340DE
:10051C00002B07D17B681B687A681268126822F07E
:10052C0001021A607B68012283F8392000231846E7
:10053C000C37BD465DF8047B704700BF80B582B0B8
:10054C0000AF78607B68002B01D101231DE07B6834
:10055C0093F83930DBB2002B06D17B68002283F88C
:10056C003820786800F046F87B68022283F839203E
:10057C007B681A687B6804331946104603F00CF844
:10058C007B68012283F83920002318460837BD46C2
:10059C0080BD00BF80B582B000AF78607B6802225E
:1005AC0083F839207B681B681A6A41F211131340D7
:1005BC00002B0FD17B681B681A6A40F2444313402E
:1005CC00002B07D17B681B687A681268126822F0CE
:1005DC0001021A60786800F017F87B68002283F833
:1005EC0039207B68002283F838200023184608370E
:1005FC00BD4680BD80B483B000AF786000BF0C37BF
:10060C00BD465DF8047B704780B483B000AF786062
:10061C0000BF0C37BD465DF8047B704780B582B0D7
:10062C0000AF786039607B681B6801223968184616
:10063C0003F0D2F97B681B68104A934204D07B68A4
:10064C001B680F4A934201D1012300E00023002BC9
:10065C0007D07B681B687A681268526C42F40042BF
:10066C005A647B681B687A681268126842F001024F
:10067C001A60002318460837BD4680BD00000140B3
:10068C000004014080B582B000AF786039607B68AF
:10069C001B6800223968184603F09EF97B681B68BA
:1006AC00204A934204D07B681B681F4A934201D1B5
:1006BC00012300E00023002B17D07B681B681A6A0B
:1006CC0041F211131340002B0FD17B681B681A6A7F
:1006DC0040F244431340002B07D17B681B687A68B7
:1006EC001268526C22F400425A647B681B681A6AC6
:1006FC0041F211131340002B0FD17B681B681A6A4F
:10070C0040F244431340002B07D17B681B687A6886
:10071C001268126822F001021A600023184608378A
:10072C00BD4680BD000001400004014080B582B090
:10073C0000AF786039603B680C2B41D801A252F8AD
:10074C0023F000BF85070008CD070008CD0700087F
:10075C00CD07000897070008CD070008CD07000853
:10076C00CD070008A9070008CD070008CD07000831
:10077C00CD070008BB0700087B681B687A68126805
:10078C00D26842F00202DA601BE07B681B687A6870
:10079C001268D26842F00402DA6012E07B681B68CF
:1007AC007A681268D26842F00802DA6009E07B6865
:1007BC001B687A681268D26842F01002DA6000E0B6
:1007CC0000BF7B681B6801223968184603F004F9E6
:1007DC007B681B68104A934204D07B681B680F4AE5
:1007EC00934201D1012300E00023002B07D07B684A
:1007FC001B687A681268526C42F400425A647B6837
:10080C001B687A681268126842F001021A600023B1
:10081C0018460837BD4680BD000001400004014069
:10082C0080B582B000AF786039603B680C2B41D842
:10083C0001A252F823F000BF79080008C108000893
:10084C00C1080008C10800088B080008C10800088E
:10085C00C1080008C10800089D080008C10800086C
:10086C00C1080008C1080008AF0800087B681B68B5
:10087C007A681268D26822F00202DA601BE07B68A8
:10088C001B687A681268D26822F00402DA6012E0FF
:10089C007B681B687A681268D26822F00802DA60FA
:1008AC0009E07B681B687A681268D26822F0100233
:1008BC00DA6000E000BF7B681B68002239681846CC
:1008CC0003F08AF87B681B68204A934204D07B684B
:1008DC001B681F4A934201D1012300E00023002B27
:1008EC0017D07B681B681A6A41F211131340002B56
:1008FC000FD17B681B681A6A40F244431340002BEB
:10090C0007D17B681B687A681268526C22F400422B
:10091C005A647B681B681A6A41F211131340002B4E
:10092C000FD17B681B681A6A40F244431340002BBA
:10093C0007D17B681B687A681268126822F0010282
:10094C001A60002318460837BD4680BD00000140E0
:10095C000004014080B584B000AFF860B9607A60E3
:10096C007B80FB6893F83930DBB2022B01D1022378
:10097C00C6E0FB6893F83930DBB2012B0BD17B68F6
:10098C00002B04D17B88002B01D00123B8E0FB683D
:10099C00022283F83920BB680C2B00F2898001A25B
:1009AC0052F823F0E5090008BD0A0008BD0A00084A
:1009BC00BD0A00081B0A0008BD0A0008BD0A000891
:1009CC00BD0A0008510A0008BD0A0008BD0A00084B
:1009DC00BD0A0008870A0008FB681B6A4A4ADA63EA
:1009EC00FB681B6A494A9A64FB68186A7968FB6859
:1009FC001B6834331A467B880CF002F9FB681B68C1
:100A0C00FA681268D26842F40072DA6051E0FB684E
:100A1C005B6A3D4ADA63FB685B6A3C4A9A64FB6832
:100A2C00586A7968FB681B6838331A467B880CF067
:100A3C00E7F8FB681B68FA681268D26842F48062B7
:100A4C00DA6036E0FB689B6A2F4ADA63FB689B6AC4
:100A5C002E4A9A64FB68986A7968FB681B683C3379
:100A6C001A467B880CF0CCF8FB681B68FA68126895
:100A7C00D26842F40062DA601BE0FB68DB6A224A4F
:100A8C00DA63FB68DB6A214A9A64FB68D86A796886
:100A9C00FB681B6840331A467B880CF0B1F8FB6886
:100AAC001B68FA681268D26842F48052DA6000E07F
:100ABC0000BFFB681B680122B968184602F08CFF66
:100ACC00FB681B68124A934204D0FB681B68114AEE
:100ADC00934201D1012300E00023002B07D0FB68D7
:100AEC001B68FA681268526C42F400425A64FB6844
:100AFC001B68FA681268126842F001021A6000233F
:100B0C0018461037BD4680BDE13800085139000841
:100B1C00000001400004014080B582B000AF786055
:100B2C0039603B680C2B41D801A252F823F000BF6E
:100B3C00710B0008B90B0008B90B0008B90B0008C1
:100B4C00830B0008B90B0008B90B0008B90B00089F
:100B5C00950B0008B90B0008B90B0008B90B00087D
:100B6C00A70B00087B681B687A681268D26822F4AD
:100B7C000072DA601BE07B681B687A681268D268C6
:100B8C0022F48062DA6012E07B681B687A68126873
:100B9C00D26822F40062DA6009E07B681B687A682C
:100BAC001268D26822F48052DA6000E000BF7B68E1
:100BBC001B6800223968184602F00EFF7B681B6820
:100BCC00224A934204D07B681B68214A934201D18C
:100BDC00012300E00023002B17D07B681B681A6AE6
:100BEC0041F211131340002B0FD17B681B681A6A5A
:100BFC0040F244431340002B07D17B681B687A6892
:100C0C001268526C22F400425A647B681B681A6AA0
:100C1C0041F211131340002B0FD17B681B681A6A29
:100C2C0040F244431340002B07D17B681B687A6861
:100C3C001268126822F001021A607B68012283F8A4
:100C4C003920002318460837BD4680BD00000140FE
:100C5C000004014080B582B000AF78607B68002B47
:100C6C0001D101231DE07B6893F83930DBB2002BF6
:100C7C0006D17B68002283F83820786800F046F8AB
:100C8C007B68022283F839207B681A687B680433FE
:100C9C001946104602F080FC7B68012283F839204B
:100CAC00002318460837BD4680BD00BF80B582B012
:100CBC0000AF78607B68022283F839207B681B6860
:100CCC001A6A41F211131340002B0FD17B681B6879
:100CDC001A6A40F244431340002B07D17B681B680F
:100CEC007A681268126822F001021A60786800F0C3
:100CFC0017F87B68002283F839207B68002283F880
:100D0C003820002318460837BD4680BD80B483B018
:100D1C0000AF786000BF0C37BD465DF8047B7047B0
:100D2C0080B483B000AF786000BF0C37BD465DF86F
:100D3C00047B704780B582B000AF786039607B6807
:100D4C001B6801223968184602F046FE7B681B6856
:100D5C00104A934204D07B681B680F4A934201D11E
:100D6C00012300E00023002B07D07B681B687A6806
:100D7C001268526C42F400425A647B681B687A68B1
:100D8C001268126842F001021A60002318460837F4
:100D9C00BD4680BD000001400004014080B582B01A
:100DAC0000AF786039607B681B6800223968184690
:100DBC0002F012FE7B681B68224A934204D07B68C7
:100DCC001B68214A934201D1012300E00023002B30
:100DDC0017D07B681B681A6A41F211131340002B61
:100DEC000FD17B681B681A6A40F244431340002BF6
:100DFC0007D17B681B687A681268526C22F4004237
:100E0C005A647B681B681A6A41F211131340002B59
:100E1C000FD17B681B681A6A40F244431340002BC5
:100E2C0007D17B681B687A681268126822F001028D
:100E3C001A607B68012283F8392000231846083792
:100E4C00BD4680BD000001400004014080B582B069
:100E5C0000AF786039603B680C2B41D801A252F886
:100E6C0023F000BFA50E0008ED0E0008ED0E0008E3
:100E7C00ED0E0008B70E0008ED0E0008ED0E000890
:100E8C00ED0E0008C90E0008ED0E0008ED0E00086E
:100E9C00ED0E0008DB0E00087B681B687A68126890
:100EAC00D26842F00202DA601BE07B681B687A6849
:100EBC001268D26842F00402DA6012E07B681B68A8
:100ECC007A681268D26842F00802DA6009E07B683E
:100EDC001B687A681268D26842F01002DA6000E08F
:100EEC0000BF7B681B6801223968184602F074FD4C
:100EFC007B681B68104A934204D07B681B680F4ABE
:100F0C00934201D1012300E00023002B07D07B6822
:100F1C001B687A681268526C42F400425A647B680F
:100F2C001B687A681268126842F001021A6000238A
:100F3C0018460837BD4680BD000001400004014042
:100F4C0080B582B000AF786039603B680C2B41D81B
:100F5C0001A252F823F000BF990F0008E10F00081E
:100F6C00E10F0008E10F0008AB0F0008E10F0008CB
:100F7C00E10F0008E10F0008BD0F0008E10F0008A9
:100F8C00E10F0008E10F0008CF0F00087B681B6819
:100F9C007A681268D26822F00202DA601BE07B6881
:100FAC001B687A681268D26822F00402DA6012E0D8
:100FBC007B681B687A681268D26822F00802DA60D3
:100FCC0009E07B681B687A681268D26822F010020C
:100FDC00DA6000E000BF7B681B68002239681846A5
:100FEC0002F0FAFC7B681B68204A934204D07B68B1
:100FFC001B681F4A934201D1012300E00023002B00
:10100C0017D07B681B681A6A41F211131340002B2E
:10101C000FD17B681B681A6A40F244431340002BC3
:10102C0007D17B681B687A681268526C22F4004204
:10103C005A647B681B681A6A41F211131340002B27
:10104C000FD17B681B681A6A40F244431340002B93
:10105C0007D17B681B687A681268126822F001025B
:10106C001A60002318460837BD4680BD00000140B9
:10107C000004014080B584B000AFF860B9607A60BC
:10108C007B80FB6893F83930DBB2022B01D1022351
:10109C00C6E0FB6893F83930DBB2012B0BD17B68CF
:1010AC00002B04D17B88002B01D00123B8E0FB6816
:1010BC00022283F83920BB680C2B00F2898001A234
:1010CC0052F823F005110008DD110008DD110008AD
:1010DC00DD1100083B110008DD110008DD110008CE
:1010EC00DD11000871110008DD110008DD11000888
:1010FC00DD110008A7110008FB681B6A4A4ADA6375
:10110C00FB681B6A494A9A64FB68186A7968FB6831
:10111C001B6834331A467B880BF072FDFB681B6826
:10112C00FA681268D26842F40072DA6051E0FB6827
:10113C005B6A3D4ADA63FB685B6A3C4A9A64FB680B
:10114C00586A7968FB681B6838331A467B880BF041
:10115C0057FDFB681B68FA681268D26842F480621B
:10116C00DA6036E0FB689B6A2F4ADA63FB689B6A9D
:10117C002E4A9A64FB68986A7968FB681B683C3352
:10118C001A467B880BF03CFDFB681B68FA681268FA
:10119C00D26842F40062DA601BE0FB68DB6A224A28
:1011AC00DA63FB68DB6A214A9A64FB68D86A79685F
:1011BC00FB681B6840331A467B880BF021FDFB68EB
:1011CC001B68FA681268D26842F48052DA6000E058
:1011DC0000BFFB681B680122B968184602F0FCFBD3
:1011EC00FB681B68124A934204D0FB681B68114AC7
:1011FC00934201D1012300E00023002B07D0FB68B0
:10120C001B68FA681268526C42F400425A64FB681C
:10121C001B68FA681268126842F001021A60002317
:10122C0018461037BD4680BDE1380008513900081A
:10123C00000001400004014080B582B000AF78602E
:10124C0039603B680C2B41D801A252F823F000BF47
:10125C0091120008D9120008D9120008D9120008FE
:10126C00A3120008D9120008D9120008D9120008DC
:10127C00B5120008D9120008D9120008D9120008BA
:10128C00C71200087B681B687A681268D26822F45F
:10129C000072DA601BE07B681B687A681268D2689F
:1012AC0022F48062DA6012E07B681B687A6812684C
:1012BC00D26822F40062DA6009E07B681B687A6805
:1012CC001268D26822F48052DA6000E000BF7B68BA
:1012DC001B6800223968184602F07EFB7B681B688D
:1012EC00224A934204D07B681B68214A934201D165
:1012FC00012300E00023002B17D07B681B681A6ABF
:10130C0041F211131340002B0FD17B681B681A6A32
:10131C0040F244431340002B07D17B681B687A686A
:10132C001268526C22F400425A647B681B681A6A79
:10133C0041F211131340002B0FD17B681B681A6A02
:10134C0040F244431340002B07D17B681B687A683A
:10135C001268126822F001021A607B68012283F87D
:10136C003920002318460837BD4680BD00000140D7
:10137C000004014080B582B000AF78607B68002B20
:10138C0001D101231DE07B6893F83930DBB2002BCF
:10139C0006D17B68002283F83820786800F046F884
:1013AC007B68022283F839207B681A687B680433D7
:1013BC001946104602F0F0F87B68012283F83920B8
:1013CC00002318460837BD4680BD00BF80B582B0EB
:1013DC0000AF78607B68022283F839207B681B6839
:1013EC001A6A41F211131340002B0FD17B681B6852
:1013FC001A6A40F244431340002B07D17B681B68E8
:10140C007A681268126822F001021A60786800F09B
:10141C0017F87B68002283F839207B68002283F858
:10142C003820002318460837BD4680BD80B483B0F1
:10143C0000AF786000BF0C37BD465DF8047B704789
:10144C0080B483B000AF786000BF0C37BD465DF848
:10145C00047B704780B582B000AF786039607B68E0
:10146C001B6801223968184602F0B6FA7B681B68C3
:10147C007A681268126842F001021A60002318465A
:10148C000837BD4680BD00BF80B582B000AF786024
:10149C0039607B681B6800223968184602F09CFA98
:1014AC007B681B681A6A41F211131340002B0FD191
:1014BC007B681B681A6A40F244431340002B07D127
:1014CC007B681B687A681268126822F001021A6045
:1014DC00002318460837BD4680BD00BF80B582B0DA
:1014EC0000AF786039603B680C2B41D801A252F8F0
:1014FC0023F000BF351500087D1500087D15000888
:10150C007D150008471500087D1500087D1500089D
:10151C007D150008591500087D1500087D1500087B
:10152C007D1500086B1500087B681B687A681268CB
:10153C00D26842F00202DA601BE07B681B687A68B2
:10154C001268D26842F00402DA6012E07B681B6811
:10155C007A681268D26842F00802DA6009E07B68A7
:10156C001B687A681268D26842F01002DA6000E0F8
:10157C0000BF7B681B6801223968184602F02CFA00
:10158C007B681B687A681268126842F001021A6064
:10159C00002318460837BD4680BD00BF80B582B019
:1015AC0000AF786039603B680C2B41D801A252F82F
:1015BC0023F000BFF51500083D1600083D16000885
:1015CC003D160008071600083D1600083D160008D9
:1015DC003D160008191600083D1600083D160008B7
:1015EC003D1600082B1600087B681B687A68126889
:1015FC00D26822F00202DA601BE07B681B687A6812
:10160C001268D26822F00402DA6012E07B681B6870
:10161C007A681268D26822F00802DA6009E07B6806
:10162C001B687A681268D26822F01002DA6000E057
:10163C0000BF7B681B6800223968184602F0CCF9A1
:10164C007B681B681A6A41F211131340002B0FD1EF
:10165C007B681B681A6A40F244431340002B07D185
:10166C007B681B687A681268126822F001021A60A3
:10167C00002318460837BD4680BD00BF80B584B036
:10168C0000AFF860B9607A607B80FB6893F8393002
:10169C00DBB2022B01D10223AFE0FB6893F83930A7
:1016AC00DBB2012B0BD17B68002B04D17B88002B88
:1016BC0001D00123A1E0FB68022283F83920BB682A
:1016CC000C2B00F2898001A252F823F00D170008B0
:1016DC00E5170008E5170008E51700084317000890
:1016EC00E5170008E5170008E5170008791700084A
:1016FC00E5170008E5170008E5170008AF17000804
:10170C00FB681B6A3F4ADA63FB681B6A3E4A9A64B1
:10171C00FB68186AFB681B68343319467A687B8847
:10172C000BF06EFAFB681B68FA681268D26842F418
:10173C000072DA6051E0FB685B6A324ADA63FB687C
:10174C005B6A314A9A64FB68586AFB681B683833D9
:10175C0019467A687B880BF053FAFB681B68FA68A9
:10176C001268D26842F48062DA6036E0FB689B6AE9
:10177C00244ADA63FB689B6A234A9A64FB68986A7A
:10178C00FB681B683C3319467A687B880BF038FA87
:10179C00FB681B68FA681268D26842F40062DA606F
:1017AC001BE0FB68DB6A174ADA63FB68DB6A164AE4
:1017BC009A64FB68D86AFB681B68403319467A68E0
:1017CC007B880BF01DFAFB681B68FA681268D268FC
:1017DC0042F48052DA6000E000BFFB681B68012213
:1017EC00B968184602F0F8F8FB681B68FA681268CA
:1017FC00126842F001021A60002318461037BD46E9
:10180C0080BD00BF753900085139000880B582B021
:10181C0000AF786039603B680C2B41D801A252F8BC
:10182C0023F000BF65180008AD180008AD180008BB
:10183C00AD18000877180008AD180008AD1800089E
:10184C00AD18000889180008AD180008AD1800087C
:10185C00AD1800089B1800087B681B687A68126832
:10186C00D26822F40072DA601BE07B681B687A682D
:10187C001268D26822F48062DA6012E07B681B681E
:10188C007A681268D26822F40062DA6009E07B6838
:10189C001B687A681268D26822F48052DA6000E021
:1018AC0000BF7B681B6800223968184602F094F868
:1018BC007B681B681A6A41F211131340002B0FD17D
:1018CC007B681B681A6A40F244431340002B07D113
:1018DC007B681B687A681268126822F001021A6031
:1018EC007B68012283F83920002318460837BD464F
:1018FC0080BD00BF80B582B000AF786039607B6876
:10190C00002B01D101232DE07B6893F83930DBB239
:10191C00002B06D17B68002283F83820786800F011
:10192C0055F87B68022283F839207B681A687B683B
:10193C0004331946104601F02FFE7B681B687A6849
:10194C001268126822F008021A607B681B687A68B9
:10195C00126811683A680A431A607B68012283F89E
:10196C003920002318460837BD4680BD80B582B0AB
:10197C0000AF78607B68022283F839207B681B6893
:10198C001A6A41F211131340002B0FD17B681B68AC
:10199C001A6A40F244431340002B07D17B681B6842
:1019AC007A681268126822F001021A60786800F0F6
:1019BC0017F87B68002283F839207B68002283F8B3
:1019CC003820002318460837BD4680BD80B483B04C
:1019DC0000AF786000BF0C37BD465DF8047B7047E4
:1019EC0080B483B000AF786000BF0C37BD465DF8A3
:1019FC00047B704780B582B000AF786039607B683B
:101A0C001B6801220021184601F0E6FF7B681B6869
:101A1C0001220421184601F0DFFF7B681B680D4A88
:101A2C00934204D07B681B680B4A934201D101237B
:101A3C0000E00023002B07D07B681B687A681268D3
:101A4C00526C42F400425A64002318460837BD46D3
:101A5C0080BD00BF000001400004014080B582B091
:101A6C0000AF786039607B681B6800220021184643
:101A7C0001F0B2FF7B681B6800220421184601F0BC
:101A8C00ABFF7B681B68214A934204D07B681B68C0
:101A9C001F4A934201D1012300E00023002B17D0F1
:101AAC007B681B681A6A41F211131340002B0FD18B
:101ABC007B681B681A6A40F244431340002B07D121
:101ACC007B681B687A681268526C22F400425A6474
:101ADC007B681B681A6A41F211131340002B0FD15B
:101AEC007B681B681A6A40F244431340002B07D1F1
:101AFC007B681B687A681268126822F001021A600F
:101B0C00002318460837BD4680BD00BF00000140C9
:101B1C000004014080B582B000AF786039607B680A
:101B2C001B687A681268D26842F00202DA607B683D
:101B3C001B687A681268D26842F00402DA607B682B
:101B4C001B6801220021184601F046FF7B681B68C8
:101B5C0001220421184601F03FFF7B681B680D4AE7
:101B6C00934204D07B681B680B4A934201D101233A
:101B7C0000E00023002B07D07B681B687A68126892
:101B8C00526C42F400425A64002318460837BD4692
:101B9C0080BD00BF000001400004014080B582B050
:101BAC0000AF786039607B681B687A681268D2680D
:101BBC0022F00202DA607B681B687A681268D268CD
:101BCC0022F00402DA607B681B68002200211846B0
:101BDC0001F002FF7B681B6800220421184601F00B
:101BEC00FBFE7B681B68214A934204D07B681B6810
:101BFC001F4A934201D1012300E00023002B17D090
:101C0C007B681B681A6A41F211131340002B0FD129
:101C1C007B681B681A6A40F244431340002B07D1BF
:101C2C007B681B687A681268526C22F400425A6412
:101C3C007B681B681A6A41F211131340002B0FD1F9
:101C4C007B681B681A6A40F244431340002B07D18F
:101C5C007B681B687A681268126822F001021A60AD
:101C6C00002318460837BD4680BD00BF0000014068
:101C7C000004014080B586B000AF78603960002365
:101C8C007B6100233B610023FB607B68002B01D14F
:101C9C00012381E07B6893F83930DBB2002B06D14D
:101CAC007B68002283F83820786800F0A9F87B68FC
:101CBC00022283F839207B681B687A681268926864
:101CCC0022F007029A607B681A687B680433194615
:101CDC00104601F061FC7B681B689B687B617B682C
:101CEC001B689B693B617B681B681B6AFB603B68DC
:101CFC001B687A6913437B613B6923F4407323F0BF
:101D0C0003033B613B689A683B689B691B02134366
:101D1C003A6913433B613B6923F4406323F00C03A2
:101D2C003B613B6923F4704323F0F0033B613B6858
:101D3C00DA683B68DB691B0213433A6913433B6166
:101D4C003B681B691A013B681B6A1B0313433A6906
:101D5C0013433B61FB6823F02203FB60FB6823F019
:101D6C008803FB603B685A683B685B691B01134343
:101D7C00FA681343FB607B681B687A699A607B681E
:101D8C001B683A699A617B681B68FA681A627B68FF
:101D9C00012283F83920002318461837BD4680BD30
:101DAC0080B582B000AF78607B68022283F839205E
:101DBC007B681B681A6A41F211131340002B0FD178
:101DCC007B681B681A6A40F244431340002B07D10E
:101DDC007B681B687A681268126822F001021A602C
:101DEC00786800F017F87B68002283F839207B684C
:101DFC00002283F83820002318460837BD4680BDE2
:101E0C0080B483B000AF786000BF0C37BD465DF87E
:101E1C00047B704780B483B000AF786000BF0C3790
:101E2C00BD465DF8047B704780B582B000AF78602A
:101E3C0039603B68002B02D0042B08D00FE07B6884
:101E4C001B6801220021184601F0C6FD16E07B68D4
:101E5C001B6801220421184601F0BEFD0EE07B68D0
:101E6C001B6801220021184601F0B6FD7B681B6837
:101E7C0001220421184601F0AFFD00BF7B681B68EE
:101E8C007A681268126842F001021A600023184640
:101E9C000837BD4680BD00BF80B582B000AF78600A
:101EAC0039603B68002B02D0042B08D00FE07B6814
:101EBC001B6800220021184601F08EFD16E07B689D
:101ECC001B6800220421184601F086FD0EE07B6899
:101EDC001B6800220021184601F07EFD7B681B6800
:101EEC0000220421184601F077FD00BF7B681B68B7
:101EFC001A6A41F211131340002B0FD17B681B6837
:101F0C001A6A40F244431340002B07D17B681B68CC
:101F1C007A681268126822F001021A6000231846CF
:101F2C000837BD4680BD00BF80B582B000AF786079
:101F3C0039603B68002B02D0042B10D01FE07B686B
:101F4C001B6801220021184601F046FD7B681B68C6
:101F5C007A681268D26842F00202DA602EE07B687E
:101F6C001B6801220421184601F036FD7B681B68B2
:101F7C007A681268D26842F00402DA601EE07B686C
:101F8C001B6801220021184601F026FD7B681B68A6
:101F9C0001220421184601F01FFD7B681B687A683A
:101FAC001268D26842F00202DA607B681B687A68B9
:101FBC001268D26842F00402DA6000BF7B681B68CA
:101FCC007A681268126842F001021A6000231846FF
:101FDC000837BD4680BD00BF80B582B000AF7860C9
:101FEC0039603B68002B0FD17B681B6800220021F5
:101FFC00184601F0F1FC7B681B687A681268D2689D
:10200C0022F00202DA6030E03B68042B0FD17B68CF
:10201C001B6800220421184601F0DEFC7B681B685B
:10202C007A681268D26822F00402DA601DE07B68DC
:10203C001B6800220021184601F0CEFC7B681B684F
:10204C0000220421184601F0C7FC7B681B687A68E3
:10205C001268D26822F00202DA607B681B687A6828
:10206C001268D26822F00402DA607B681B681A6A74
:10207C0041F211131340002B0FD17B681B681A6AB5
:10208C0040F244431340002B07D17B681B687A68ED
:10209C001268126822F001021A607B68012283F830
:1020AC003920002318460837BD4680BD80B584B062
:1020BC0000AFF860B9607A603B60FB6893F8393028
:1020CC00DBB2022B01D10223BCE0FB6893F8393060
:1020DC00DBB2012B0ED17B68002B02D03B68002BAE
:1020EC0004D13B8B002B01D00123ABE0FB68022217
:1020FC0083F83920BB68042B2ED0182B56D0002B1C
:10210C0000D09EE0FB681B6A504ADA63FB681B6ACE
:10211C004F4A9A64FB68186AFB681B68343319468B
:10212C007A683B8B0AF06CFDFB681B68FA681268D6
:10213C00D26842F40072DA60FB681B68FA681268B5
:10214C00126842F001021A60FB681B680122002130
:10215C00184601F041FC74E0FB685B6A3B4ADA63A9
:10216C00FB685B6A3A4A9A64FB68586AFB681B68AE
:10217C00383319463A683B8B0AF042FDFB681B6802
:10218C00FA681268D26842F48062DA60FB681B68F5
:10219C00FA681268126842F001021A60FB681B6848
:1021AC0001220421184601F017FC4AE0FB681B6A67
:1021BC00264ADA63FB681B6A254A9A64FB68186A2C
:1021CC00FB681B68343319467A683B8B0AF018FDA0
:1021DC00FB685B6A1D4ADA63FB685B6A1C4A9A649B
:1021EC00FB68586AFB681B68383319463A683B8BA6
:1021FC000AF006FDFB681B68FA681268126842F068
:10220C0001021A60FB681B6801220021184601F0CC
:10221C00E3FBFB681B6801220421184601F0DCFB80
:10222C00FB681B68FA681268D26842F40072DA60C4
:10223C00FB681B68FA681268D26842F48062DA6044
:10224C0000BF002318461037BD4680BD7539000805
:10225C005139000880B582B000AF786039603B68B6
:10226C00002B0FD17B681B6800220021184601F05F
:10227C00B3FB7B681B687A681268D26822F4007220
:10228C00DA6030E03B68042B0FD17B681B680022BE
:10229C000421184601F0A0FB7B681B687A68126861
:1022AC00D26822F48062DA601DE07B681B68002231
:1022BC000021184601F090FB7B681B68002204216A
:1022CC00184601F089FB7B681B687A681268D26833
:1022DC0022F40072DA607B681B687A681268D26834
:1022EC0022F48062DA607B681B681A6A41F211136F
:1022FC001340002B0FD17B681B681A6A40F24443D1
:10230C001340002B07D17B681B687A68126812682F
:10231C0022F001021A607B68012283F83920002325
:10232C0018460837BD4680BD80B582B000AF7860D6
:10233C007B681B681B6903F00203002B22D07B68AF
:10234C001B68DB6803F00203002B1BD07B681B6847
:10235C006FF002021A617B6801221A767B681B6897
:10236C009B6903F00303002B03D0786801F098F805
:10237C0005E0786801F08AF8786801F09BF87B68D2
:10238C0000221A767B681B681B6903F00403002B80
:10239C0022D07B681B68DB6803F00403002B1BD086
:1023AC007B681B686FF004021A617B6802221A7644
:1023BC007B681B689B6903F44073002B03D078681F
:1023CC0001F06EF805E0786801F060F8786801F0CB
:1023DC0071F87B6800221A767B681B681B6903F016
:1023EC000803002B22D07B681B68DB6803F0080312
:1023FC00002B1BD07B681B686FF008021A617B688E
:10240C0004221A767B681B68DB6903F00303002B3C
:10241C0003D0786801F044F805E0786801F036F8EC
:10242C00786801F047F87B6800221A767B681B6895
:10243C001B6903F01003002B22D07B681B68DB6840
:10244C0003F01003002B1BD07B681B686FF010028D
:10245C001A617B6808221A767B681B68DB6903F4B7
:10246C004073002B03D0786801F01AF805E0786807
:10247C0001F00CF8786801F01DF87B6800221A76E0
:10248C007B681B681B6903F00103002B0ED07B6873
:10249C001B68DB6803F00103002B07D07B681B680B
:1024AC006FF001021A61786800F0E6FF7B681B6828
:1024BC001B6903F08003002B0ED07B681B68DB6864
:1024CC0003F08003002B07D07B681B686FF0800241
:1024DC001A61786809F0E6FA7B681B681B6903F0DF
:1024EC004003002B0ED07B681B68DB6803F04003B5
:1024FC00002B07D07B681B686FF040021A6178686C
:10250C0000F0E2FF7B681B681B6903F02003002BC3
:10251C000ED07B681B68DB6803F02003002B07D010
:10252C007B681B686FF020021A61786809F0B0FABA
:10253C0000BF0837BD4680BD80B584B000AFF860E1
:10254C00B9607A60FB6893F83830012B01D1022313
:10255C004EE0FB68012283F83820FB68022283F8E6
:10256C0039207B680C2B39D801A252F823F000BF1C
:10257C00B1250008E9250008E9250008E92500082F
:10258C00BF250008E9250008E9250008E925000811
:10259C00CD250008E9250008E9250008E9250008F3
:1025AC00DB250008FB681B68B968184601F05CFA6B
:1025BC0015E0FB681B68B968184601F013F90EE0CA
:1025CC00FB681B68B968184601F0C2FA07E0FB68A3
:1025DC001B68B968184601F033FB00E000BFFB68CC
:1025EC00012283F83920FB68002283F8382000236D
:1025FC0018461037BD4680BD80B584B000AFF8607A
:10260C00B9607A60FB6893F83830012B01D1022352
:10261C008AE0FB68012283F83820FB68022283F8E9
:10262C0039207B68002B1BD1FB681868BB681968C4
:10263C00BB685A68BB68DB6801F058F8FB681B681C
:10264C00FA681268926922F00C029A61FB681B68A6
:10265C00FA6812689169BA6892680A439A615AE0FA
:10266C007B68042B1CD1FB681868BB681968BB68B5
:10267C005A68BB68DB6801F003FCFB681B68FA68EE
:10268C001268926922F440629A61FB681B68FA68CE
:10269C0012689169BA68926812020A439A613AE028
:1026AC007B68082B1BD1FB681868BB681968BB6872
:1026BC005A68BB68DB6801F059FCFB681B68FA6858
:1026CC001268D26922F00C02DA61FB681B68FA68A6
:1026DC001268D169BA6892680A43DA611BE0FB6838
:1026EC001868BB681968BB685A68BB68DB6801F07E
:1026FC007DFCFB681B68FA681268D26922F44062A0
:10270C00DA61FB681B68FA681268D169BA6892686A
:10271C0012020A43DA61FB68012283F83920FB6854
:10272C00002283F83820002318461037BD4680BDA0
:10273C0080B584B000AFF860B9607A60FB6893F83C
:10274C003830012B01D10223B4E0FB68012283F85D
:10275C003820FB68022283F839207B680C2B00F2AE
:10276C009F8001A252F823F0A9270008AD28000889
:10277C00AD280008AD280008E9270008AD2800089E
:10278C00AD280008AD2800082B280008AD2800084B
:10279C00AD280008AD2800086B280008FB681B68F2
:1027AC00B968184601F060F9FB681B68FA68126892
:1027BC00926942F008029A61FB681B68FA68126819
:1027CC00926922F004029A61FB681B68FA6812682D
:1027DC009169BA6812690A439A6162E0FB681B68E6
:1027EC00B968184600F0FEFFFB681B68FA681268AF
:1027FC00926942F400629A61FB681B68FA6812687D
:10280C00926922F480629A61FB681B68FA6812680C
:10281C009169BA68126912020A439A6141E0FB6835
:10282C001B68B968184601F093F9FB681B68FA68D5
:10283C001268D26942F00802DA61FB681B68FA6818
:10284C001268D26922F00402DA61FB681B68FA682C
:10285C001268D169BA6812690A43DA6121E0FB682F
:10286C001B68B968184601F0EBF9FB681B68FA683D
:10287C001268D26942F40062DA61FB681B68FA687C
:10288C001268D26922F48062DA61FB681B68FA680C
:10289C001268D169BA68126912020A43DA6100E05F
:1028AC0000BFFB68012283F83920FB68002283F803
:1028BC003820002318461037BD4680BD80B58CB03B
:1028CC0000AFF860B9607A603B607A683B689A4206
:1028DC0000F0AF80FB6893F83830012B01D1022354
:1028EC00A8E0FB68012283F83820FB68022283F8F9
:1028FC003920BB681B687B61BB685B68BB61BB68CC
:10290C009B68FB61BB68DB683B62BB681B69BB6295
:10291C00BB685B69FB627B68002B02D0042B09D07F
:10292C0011E0FB681B6807F114021146184601F010
:10293C009BF808E0FB681B6807F114021146184667
:10294C0000F050FF00BF3B68002B02D0042B33D0AB
:10295C0065E0FB681868BB689969BB68DA69BB6895
:10296C001B6A00F0C3FEFB681B68FA681268926968
:10297C0022F00C029A61FB681B68FA681268926874
:10298C0022F070029A60FB681B68FA681268926801
:10299C0042F050029A60FB681B68FA6812689268F1
:1029AC0022F007029A60FB681B68FA68126892684A
:1029BC0042F006029A6032E0FB681868BB689969BD
:1029CC00BB68DA69BB681B6A01F05AFAFB681B68C2
:1029DC00FA681268926922F440629A61FB681B687B
:1029EC00FA681268926822F070029A60FB681B68A1
:1029FC00FA681268926842F060029A60FB681B6881
:102A0C00FA681268926822F007029A60FB681B68E9
:102A1C00FA681268926842F006029A6000BFFB687E
:102A2C00012283F83920FB68002283F83820002328
:102A3C0000E0012318463037BD4680BD80B584B018
:102A4C0000AFF860B9607A603B60FB6893F839308E
:102A5C00DBB2022B01D10223D3E0FB6893F83930AF
:102A6C00DBB2012B0BD13B68002B04D1BB69002BD3
:102A7C0001D00123C5E0FB68022283F839207B6872
:102A8C00B3F5006F56D0B3F5006F09D8B3F5007FDE
:102A9C0026D0B3F5806F38D0B3F5807F0BD09DE096
:102AAC00B3F5005F70D0B3F5804F00F08280B3F5C2
:102ABC00805F54D092E0FB68DB69544ADA63FB68B0
:102ACC00DB69534A9A64FB68D8693968FB681B68F0
:102ADC004C331A46BB691B0A01330AF091F87DE0AE
:102AEC00FB681B6A4B4ADA63FB681B6A484A9A64A8
:102AFC00FB68186A3968FB681B684C331A46BB695B
:102B0C001B0A01330AF07CF868E0FB685B6A414AF7
:102B1C00DA63FB685B6A3E4A9A64FB68586A3968F8
:102B2C00FB681B684C331A46BB691B0A01330AF05D
:102B3C0067F853E0FB689B6A364ADA63FB689B6A6A
:102B4C00334A9A64FB68986A3968FB681B684C3393
:102B5C001A46BB691B0A01330AF052F83EE0FB68C7
:102B6C00DB6A2C4ADA63FB68DB6A294A9A64FB68E5
:102B7C00D86A3968FB681B684C331A46BB691B0A58
:102B8C0001330AF03DF829E0FB681B6B224ADA633B
:102B9C00FB681B6B1E4A9A64FB68186B3968FB68F0
:102BAC001B684C331A46BB691B0A01330AF028F820
:102BBC0014E0FB685B6B194ADA63FB685B6B144AC5
:102BCC009A64FB68586B3968FB681B684C331A466F
:102BDC00BB691B0A01330AF013F800BFFB681B68C2
:102BEC00B968BA690A439A64FB681B68FA68126888
:102BFC00D1687A680A43DA60FB68012283F83920CD
:102C0C00002318461037BD4680BD00BF2D3A000882
:102C1C0051390008E1380008E1BA0008513A0008BF
:102C2C0080B582B000AF786039603B68B3F5006F57
:102C3C0028D0B3F5006F09D8B3F5007F16D0B3F5E3
:102C4C00806F19D0B3F5807F0AD033E0B3F5005F05
:102C5C0024D0B3F5804F27D0B3F5805F18D029E08E
:102C6C007B68DB6918460AF00DF823E07B681B6A69
:102C7C0018460AF007F81DE07B685B6A18460AF0F4
:102C8C0001F817E07B689B6A184609F0FBFF11E01E
:102C9C007B68DB6A184609F0F5FF0BE07B681B6B61
:102CAC00184609F0EFFF05E07B685B6B184609F0EE
:102CBC00E9FF00BF7B681B687A681268D1683A68C4
:102CCC00D2430A40DA60002318460837BD4680BD5F
:102CDC0080B584B000AFF860B9607A603B60FB6887
:102CEC0093F83930DBB2022B01D10223D3E0FB681D
:102CFC0093F83930DBB2012B0BD13B68002B04D19C
:102D0C00BB69002B01D00123C5E0FB68022283F8CC
:102D1C0039207B68B3F5006F56D0B3F5006F09D836
:102D2C00B3F5007F26D0B3F5806F38D0B3F5807F34
:102D3C000BD09DE0B3F5005F70D0B3F5804F00F081
:102D4C008280B3F5805F54D092E0FB68DB69544A13
:102D5C00DA63FB68DB69534A9A64FB68D869FB68E1
:102D6C001B684C3319463A68BB691B0A013309F0DE
:102D7C0047FF7DE0FB681B6A4B4ADA63FB681B6A02
:102D8C00484A9A64FB68186AFB681B684C331946FE
:102D9C003A68BB691B0A013309F032FF68E0FB6833
:102DAC005B6A414ADA63FB685B6A3E4A9A64FB6879
:102DBC00586AFB681B684C3319463A68BB691B0A96
:102DCC00013309F01DFF53E0FB689B6A364ADA6356
:102DDC00FB689B6A334A9A64FB68986AFB681B68B9
:102DEC004C3319463A68BB691B0A013309F008FFDA
:102DFC003EE0FB68DB6A2C4ADA63FB68DB6A294A33
:102E0C009A64FB68D86AFB681B684C3319463A68AD
:102E1C00BB691B0A013309F0F3FE29E0FB681B6B4D
:102E2C00224ADA63FB681B6B1E4A9A64FB68186BB8
:102E3C00FB681B684C3319463A68BB691B0A0133A3
:102E4C0009F0DEFE14E0FB685B6B194ADA63FB6881
:102E5C005B6B144A9A64FB68586BFB681B684C33B9
:102E6C0019463A68BB691B0A013309F0C9FE00BF59
:102E7C00FB681B68B968BA690A439A64FB681B68EB
:102E8C00FA681268D1687A680A43DA60FB68012232
:102E9C0083F83920002318461037BD4680BD00BF8B
:102EAC002D3A00085139000875390008E1BA0008BC
:102EBC00513A000880B582B000AF786039603B6849
:102ECC00B3F5006F28D0B3F5006F09D8B3F5007FC8
:102EDC0016D0B3F5806F19D0B3F5807F0AD033E0EC
:102EEC00B3F5005F24D0B3F5804F27D0B3F5805FE6
:102EFC0018D029E07B68DB69184609F0C3FE23E093
:102F0C007B681B6A184609F0BDFE1DE07B685B6A96
:102F1C00184609F0B7FE17E07B689B6A184609F063
:102F2C00B1FE11E07B68DB6A184609F0ABFE0BE0E2
:102F3C007B681B6B184609F0A5FE05E07B685B6B94
:102F4C00184609F09FFE00BF7B681B687A68126800
:102F5C00D1683A68D2430A40DA6000231846083731
:102F6C00BD4680BD80B483B000AF786039607B68AB
:102F7C0093F83830012B01D1022314E07B68012235
:102F8C0083F838207B68022283F839207B681B6821
:102F9C003A685A617B68012283F839207B680022E9
:102FAC0083F83820002318460C37BD465DF8047BA7
:102FBC00704700BF80B584B000AFF860B9607A602C
:102FCC00FB6893F83830012B01D1022398E0FB68A1
:102FDC00012283F83820FB68022283F83920BB6871
:102FEC005B68012B09D1FB681868BB68D968BB68A2
:102FFC009A68BB681B6901F05BF87B680C2B75D871
:10300C0001A252F823F000BF49300008F930000843
:10301C00F9300008F930000875300008F930000864
:10302C00F9300008F9300008A1300008F930000828
:10303C00F9300008F9300008CD300008BB681B6877
:10304C00002B08D0FB681B68FA681268926942F082
:10305C0080029A614BE0FB681B68FA6812689269FF
:10306C0022F080029A6142E0BB681B68002B08D0FA
:10307C00FB681B68FA681268926942F400429A6114
:10308C0035E0FB681B68FA681268926922F400420A
:10309C009A612CE0BB681B68002B08D0FB681B688E
:1030AC00FA681268D26942F08002DA611FE0FB68AC
:1030BC001B68FA681268D26922F08002DA6116E0A5
:1030CC00BB681B68002B08D0FB681B68FA68126889
:1030DC00D26942F40042DA6109E0FB681B68FA68C5
:1030EC001268D26922F40042DA6100E000BFFB688A
:1030FC00012283F83920FB68002283F83820002352
:10310C0018461037BD4680BD80B584B000AF7860DE
:10311C0039600023FB607B6893F83830012B01D1B8
:10312C000223C8E07B68012283F838207B680222E6
:10313C0083F839207B681B689B68FB60FB6823F075
:10314C007703FB60FB6823F47F43FB607B681B68A1
:10315C00FA689A603B681B68402B77D0402B0ED8DE
:10316C00102B00F08A80102B02D8002B7ED099E017
:10317C00202B00F08980302B00F08D8092E0702B9A
:10318C0016D0702B04D8502B40D0602B4ED089E039
:10319C00B3F5805F03D0B3F5005F24D082E07B6889
:1031AC001B687A681268926822F007029A6079E0CC
:1031BC007B6818683B6899683B685A683B68DB68B1
:1031CC0000F076FF7B681B689B68FB60FB6823F054
:1031DC007703FB60FB6843F07703FB607B681B683D
:1031EC00FA689A605EE07B6818683B6899683B688F
:1031FC005A683B68DB6800F05BFF7B681B687A6889
:10320C001268926842F480429A604BE07B681868BE
:10321C003B6859683B68DB681A4600F0FDFD7B682B
:10322C001B685021184600F023FF3BE07B681868B0
:10323C003B6859683B68DB681A4600F063FE7B68A4
:10324C001B686021184600F013FF2BE07B681868A0
:10325C003B6859683B68DB681A4600F0DDFD7B680B
:10326C001B684021184600F003FF1BE07B681B68BD
:10327C000021184600F0FCFE14E07B681B6810214E
:10328C00184600F0F5FE0DE07B681B6820211846FF
:10329C0000F0EEFE06E07B681B683021184600F05B
:1032AC00E7FE00BF7B68012283F839207B6800228F
:1032BC0083F83820002318461037BD4680BD00BF68
:1032CC0080B485B000AF786039600023FB607B6808
:1032DC001B685B68FB60FB6823F08003FB60FA688B
:1032EC003B681343FB607B681B68FA685A600023D9
:1032FC0018461437BD465DF8047B704780B582B024
:10330C0000AF786039607B6893F83830012B01D1BD
:10331C00022324E07B68012283F838207B68022298
:10332C0083F839203968786800F0EAFC7B681B6800
:10333C007A681268D26822F04002DA607B681B68F7
:10334C007A681268D26822F48042DA607B680122C3
:10335C0083F839207B68002283F838200023184634
:10336C000837BD4680BD00BF80B582B000AF786025
:10337C0039607B6893F83830012B01D1022324E0AB
:10338C007B68012283F838207B68022283F839207D
:10339C003968786800F0B4FC7B681B687A6812683E
:1033AC00D26842F04002DA607B681B687A68126867
:1033BC00D26822F48042DA607B68012283F83920DB
:1033CC007B68002283F83820002318460837BD4656
:1033DC0080BD00BF80B485B000AF78603960002339
:1033EC00FB607B6893F83830012B01D102233DE060
:1033FC007B68012283F838203B680C2B30D801A263
:10340C0052F823F0453400086D3400086D34000880
:10341C006D3400084F3400086D3400086D3400081A
:10342C006D340008593400086D3400086D34000800
:10343C006D340008633400087B681B685B6BFB60B1
:10344C000FE07B681B689B6BFB600AE07B681B686A
:10345C00DB6BFB6005E07B681B681B6CFB6000E0B2
:10346C0000BF7B68002283F83820FB6818461437AD
:10347C00BD465DF8047B704780B483B000AF7860C4
:10348C0000BF0C37BD465DF8047B704780B483B039
:10349C0000AF786000BF0C37BD465DF8047B704709
:1034AC0080B483B000AF786000BF0C37BD465DF8C8
:1034BC00047B704780B483B000AF786000BF0C37DA
:1034CC00BD465DF8047B704780B483B000AF786074
:1034DC0000BF0C37BD465DF8047B704780B483B0E9
:1034EC0000AF786000BF0C37BD465DF8047B7047B9
:1034FC0080B483B000AF78607B6893F83930DBB26E
:10350C0018460C37BD465DF8047B704780B483B019
:10351C0000AF78607B6893F83930DBB218460C3713
:10352C00BD465DF8047B704780B483B000AF786013
:10353C007B6893F83930DBB218460C37BD465DF822
:10354C00047B704780B483B000AF78607B6893F8DD
:10355C003930DBB218460C37BD465DF8047B70473A
:10356C0080B483B000AF78607B6893F83930DBB2FD
:10357C0018460C37BD465DF8047B704780B483B0A9
:10358C0000AF78607B6893F83930DBB218460C37A3
:10359C00BD465DF8047B704780B485B000AF7860A1
:1035AC0039600023FB607B681B68FB607B68444AC6
:1035BC00934213D07B68B3F1804F0FD07B68414AA4
:1035CC0093420BD07B68404A934207D07B683F4ABA
:1035DC00934203D07B683E4A934201D1012300E021
:1035EC000023002B08D0FB6823F07003FB603B68C2
:1035FC005B68FA681343FB607B68314A93422BD0BB
:10360C007B68B3F1804F27D07B682E4A934223D03E
:10361C007B682D4A93421FD07B682C4A93421BD067
:10362C007B682B4A934217D07B682A4A934213D06B
:10363C007B68294A93420FD07B68284A93420BD06F
:10364C007B68274A934207D07B68264A934203D073
:10365C007B68254A934201D1012300E00023002B13
:10366C0008D0FB6823F44073FB603B68DB68FA68A6
:10367C001343FB607B68FA681A603B689A687B6846
:10368C00DA623B681A687B689A627B680C4A9342E0
:10369C0003D07B680E4A934201D1012300E0002342
:1036AC00002B03D03B681A697B681A637B68012284
:1036BC005A6100BF1437BD465DF8047B704700BFEC
:1036CC00000001400004004000080040000C0040D5
:1036DC00000401400040014000440140004801400A
:1036EC0000180040001C00400020004080B487B04F
:1036FC0000AFF860B9607A603B6000237B61002307
:10370C003B61FB681B6A23F00102FB681A62FB68D1
:10371C009B697B61FB681B6A3B61FB682A4A93428D
:10372C001BD0FB68B3F1804F17D0FB68274A93423C
:10373C0013D0FB68264A93420FD0FB68254A93426C
:10374C000BD0FB68244A934207D0FB68234A934270
:10375C0003D0FB68224A934201D1012300E00023ED
:10376C00002B08D07B6923F003037B617A697B68AB
:10377C0013437B6107E07B6923F003037B617B6967
:10378C0043F001037B617B6923F0F0037B613B68B1
:10379C001B01DBB27A6913437B613B6923F00A039B
:1037AC003B61BB6803F00A033A6913433B61FB6856
:1037BC007A699A61FB683A691A6200BF1C37BD4688
:1037CC005DF8047B704700BF00000140000400401E
:1037DC0000080040000C0040000401400040014083
:1037EC000018004080B487B000AF786039600023C7
:1037FC00FB6000237B6100233B617B681B6A23F029
:10380C0010027B681A627B681B6A7B617B685B6851
:10381C003B617B689B69FB60FB6823F4E043FB60C6
:10382C00FB6823F44073FB603B681B681B02FA685F
:10383C001343FB607B6923F020037B613B689B682F
:10384C001B017A6913437B617B68204A934203D046
:10385C007B681F4A934201D1012300E00023002B17
:10386C0021D07B6923F080037B613B68DB681B0103
:10387C007A6913437B617B6923F040037B613B696D
:10388C0023F480633B613B6923F400633B613B6839
:10389C005B699B003A6913433B613B689B699B00E6
:1038AC003A6913433B617B683A695A607B68FA68F2
:1038BC009A613B685A687B689A637B687A691A627A
:1038CC0000BF1C37BD465DF8047B7047000001400B
:1038DC000004014080B584B000AF78607B689B6BBE
:1038EC00FB60FB68012283F83920FB681A6A7B684D
:1038FC009A4203D1FB6801221A7619E0FB685A6AD6
:10390C007B689A4203D1FB6802221A7610E0FB68AE
:10391C009A6A7B689A4203D1FB6804221A7607E004
:10392C00FB68DA6A7B689A4202D1FB6808221A7635
:10393C00F868FFF7BFFDFB6800221A7600BF10374E
:10394C00BD4680BD80B584B000AF78607B689B6B52
:10395C00FB60FB68012283F83920F868FFF7BEFD95
:10396C0000BF1037BD4680BD80B584B000AF786015
:10397C007B689B6BFB60FB68012283F83920FB683A
:10398C001A6A7B689A4203D1FB6801221A7619E005
:10399C00FB685A6A7B689A4203D1FB6802221A764A
:1039AC0010E0FB689A6A7B689A4203D1FB68042298
:1039BC001A7607E0FB68DA6A7B689A4202D1FB68E8
:1039CC0008221A76F868FFF76BFDFB6800221A765E
:1039DC0000BF1037BD4680BD80B487B000AFF86023
:1039EC00B9607A6000237B610122BB6802FA03F3A1
:1039FC007B61FB681A6A7B69DB431A40FB681A62BD
:103A0C00FB681A6A7968BB6801FA03F31A43FB680E
:103A1C001A6200BF1C37BD465DF8047B704700BFBF
:103A2C0080B584B000AF78607B689B6BFB60FB68F3
:103A3C00012283F83920F868FFF71EFD00BF10370C
:103A4C00BD4680BD80B584B000AF78607B689B6B51
:103A5C00FB60FB68012283F83920F868FFF734FD1E
:103A6C0000BF1037BD4680BD80B487B000AF786012
:103A7C0039600023FB6000237B6100233B617B6882
:103A8C001B6A23F001027B681A627B681B6A7B61EC
:103A9C007B685B683B617B689B69FB60FB6823F020
:103AAC007003FB60FB6823F00303FB603B681B683F
:103ABC00FA681343FB607B6923F002037B613B686C
:103ACC009B687A6913437B617B681F4A934203D0DE
:103ADC007B681E4A934201D1012300E00023002B96
:103AEC001ED07B6923F008037B613B68DB687A6935
:103AFC0013437B617B6923F004037B613B6923F4F3
:103B0C0080733B613B6923F400733B613B685B69E9
:103B1C003A6913433B613B689B693A6913433B61C8
:103B2C007B683A695A607B68FA689A613B685A68A4
:103B3C007B685A637B687A691A6200BF1C37BD4682
:103B4C005DF8047B704700BF000001400004014099
:103B5C0080B487B000AF786039600023FB6000232D
:103B6C007B6100233B617B681B6A23F480727B685A
:103B7C001A627B681B6A7B617B685B683B617B6854
:103B8C00DB69FB60FB6823F07003FB60FB6823F0D0
:103B9C000303FB603B681B68FA681343FB607B699B
:103BAC0023F400737B613B689B681B027A691343A7
:103BBC007B617B68204A934203D07B681F4A934207
:103BCC0001D1012300E00023002B21D07B6923F4D9
:103BDC0000637B613B68DB681B027A6913437B6182
:103BEC007B6923F480637B613B6923F480533B61E5
:103BFC003B6923F400533B613B685B691B013A69E9
:103C0C0013433B613B689B691B013A6913433B615E
:103C1C007B683A695A607B68FA68DA613B685A6873
:103C2C007B68DA637B687A691A6200BF1C37BD4611
:103C3C005DF8047B704700BF0000014000040140A8
:103C4C0080B487B000AF7860396000233B610023FB
:103C5C00FB6000237B617B681B6A23F480527B68CA
:103C6C001A627B681B6AFB607B685B687B617B68A4
:103C7C00DB693B613B6923F4E0433B613B6923F423
:103C8C0040733B613B681B681B023A6913433B6101
:103C9C00FB6823F40053FB603B689B681B03FA68CA
:103CAC001343FB607B68144A934203D07B68134A2E
:103CBC00934201D1012300E00023002B09D07B6942
:103CCC0023F480437B613B685B699B017A691343F6
:103CDC007B617B687A695A607B683A69DA613B6818
:103CEC005A687B681A647B68FA681A6200BF1C37D2
:103CFC00BD465DF8047B70470000014000040140A4
:103D0C0080B586B000AF7860396000237B610023FA
:103D1C003B610023FB607B681B689B687B617B6954
:103D2C0023F070037B613B685B687A6913437B61AA
:103D3C007B6923F007037B613B681B687A6913433B
:103D4C007B617B681B687A699A603B685B68302B87
:103D5C0056D0302B06D8102B54D0202B54D0002BFF
:103D6C0054D054E0502B37D0502B02D8402B10D0CD
:103D7C004DE0602B3AD0702B00D048E07B6818687F
:103D8C003B68D9683B689A683B681B6900F090F9FE
:103D9C003DE07B681B681B6AFB607B681B687A686C
:103DAC001268126A22F001021A627B681B689B6916
:103DBC003B613B6923F0F0033B613B681B691B01D2
:103DCC003A6913433B617B681B683A699A617B686B
:103DDC001B68FA681A621AE07B6818683B68996875
:103DEC003B681B691A4600F017F810E07B681868EE
:103DFC003B6899683B681B691A4600F083F806E03B
:103E0C0000BF04E000BF02E000BF00E000BF00BF45
:103E1C001837BD4680BD00BF80B487B000AFF860D6
:103E2C00B9607A6000237B6100233B61FB681B6AED
:103E3C003B61FB681B6A23F00102FB681A62FB689A
:103E4C009B697B617B6923F0F0037B617B681B01C1
:103E5C007A6913437B613B6923F00A033B613A693E
:103E6C00BB6813433B61FB687A699A61FB683A69EA
:103E7C001A6200BF1C37BD465DF8047B704700BF5B
:103E8C0080B487B000AFF860B9607A603B60002303
:103E9C007B6100233B61FB681B6A23F01002FB680B
:103EAC001A62FB689B697B61FB681B6A3B617B69DF
:103EBC0023F440737B617B681B027A6913437B613B
:103ECC007B6923F470437B613B681B039BB27A696B
:103EDC0013437B613B6923F0A0033B61BB681B016F
:103EEC0003F0A0033A6913433B61FB687A699A615A
:103EFC00FB683A691A6200BF1C37BD465DF8047B4B
:103F0C00704700BF80B487B000AFF860B9607A60CA
:103F1C0000237B6100233B61FB681B6A23F01002CA
:103F2C00FB681A62FB689B697B61FB681B6A3B61DF
:103F3C007B6923F470437B617B681B037A691343B1
:103F4C007B613B6923F0A0033B61BB681B013A69B1
:103F5C0013433B61FB687A699A61FB683A691A62A0
:103F6C0000BF1C37BD465DF8047B704780B487B03A
:103F7C0000AFF860B9607A603B6000237B6100237E
:103F8C003B61FB681B6A23F48072FB681A62FB6856
:103F9C00DB697B61FB681B6A3B617B6923F0030374
:103FAC007B617A697B6813437B617B6923F0F00347
:103FBC007B613B681B01DBB27A6913437B613B6914
:103FCC0023F420633B61BB681B0203F420633A6952
:103FDC0013433B61FB687A69DA61FB683A691A62E0
:103FEC0000BF1C37BD465DF8047B704780B487B0BA
:103FFC0000AFF860B9607A603B6000237B610023FE
:10400C003B61FB681B6A23F48052FB681A62FB68F5
:10401C00DB697B61FB681B6A3B617B6923F4407342
:10402C007B617B681B027A6913437B617B6923F498
:10403C0070437B613B681B039BB27A6913437B61C2
:10404C003B6923F420433B61BB681B0303F420430F
:10405C003A6913433B61FB687A69DA61FB683A6938
:10406C001A6200BF1C37BD465DF8047B704700BF69
:10407C0080B485B000AF78600B467B800023FB607A
:10408C007B689B68FB60FB6823F07003FB607B889C
:10409C0043F007039BB21A46FB681343FB607B6833
:1040AC00FA689A6000BF1437BD465DF8047B704710
:1040BC0080B487B000AFF860B9607A603B600023D1
:1040CC007B61FB689B687B617B6923F47F437B612D
:1040DC003B681A027B681A43BB6813437A69134323
:1040EC007B61FB687A699A6000BF1C37BD465DF83E
:1040FC00047B704780B582B000AF78607B68002B82
:10410C0001D101233BE07B6893F83930DBB2002B03
:10411C0006D17B68002283F83820786808F04AFBC7
:10412C007B68022283F839207B681B687A681268E6
:10413C00D26822F40052DA60786801F0E1F97B6809
:10414C001B687A681268126922F490421A617B68C3
:10415C001B687A681268526922F02A025A617B68DD
:10416C001B687A681268D26842F40052DA607B6885
:10417C000022DA637B68012283F839200023184679
:10418C000837BD4680BD00BF80B582B000AF7860F7
:10419C007B68002B01D1012343E07B6893F8393015
:1041AC00DBB2002B06D17B68002283F838207868BC
:1041BC0008F000FB7B68022283F839207B681B68BF
:1041CC007A681268D26822F40052DA60786801F0DA
:1041DC0097F97B681B687A681268126922F490421E
:1041EC001A617B681B687A681268526922F0220295
:1041FC005A617B681B687A681268526942F008023F
:10420C005A617B681B687A681268D26842F4005263
:10421C00DA607B680022DA637B68012283F839203C
:10422C00002318460837BD4680BD00BF80B582B05C
:10423C0000AF786039607B68002B01D1012353E01B
:10424C007B6893F83930DBB2002B06D17B680022F7
:10425C0083F83820786808F0ADFA7B68022283F87E
:10426C0039207B681B687A681268D26822F4005285
:10427C00DA60786801F044F97B681B687A68126828
:10428C00126922F400621A617B681B687A681268F2
:10429C00526922F02A025A617B681B687A6812689C
:1042AC00126942F480421A617B681B687A68126852
:1042BC00126922F020021A617B681B687A68126806
:1042CC0011693A680A431A617B681B687A6812683C
:1042DC00D26842F40052DA607B680022DA637B68B1
:1042EC00012283F83920002318460837BD4680BDCB
:1042FC0080B584B000AFF8600B467A60FB72FB6847
:10430C00002B01D101235BE0FB6893F83930DBB261
:10431C00002B06D1FB68002283F83820F86808F0DF
:10432C0049FAFB68022283F83920FB681B68FA689B
:10433C001268D26822F40052DA60F86801F0E0F8F2
:10434C00FB681B68FA681268126922F490421A61C1
:10435C00FB681B68FA681268526922F02A025A61DB
:10436C00FB681B68FA681268126922F00F021A6166
:10437C00FB681B68FA6812681169FA7A0A431A61B9
:10438C00FB681B68FA681268D26822F40062DA6073
:10439C00FB681B68FA681268D1687A680A43DA60AD
:1043AC00FB681B68FA681268D26842F40052DA6043
:1043BC00FB680022DA63FB68012283F839200023B2
:1043CC0018461037BD4680BD80B582B000AF78600E
:1043DC007B68002B01D1012312E07B68022283F859
:1043EC003920786808F020FA7B680022DA637B6851
:1043FC00002283F839207B68002283F838200023C0
:10440C0018460837BD4680BD80B483B000AF7860D5
:10441C0000BF0C37BD465DF8047B704780B483B099
:10442C0000AF786000BF0C37BD465DF8047B704769
:10443C0080B586B000AFF860B9603B601346FB8076
:10444C0000237B61FB6893F83930DBB27B617B69BD
:10445C00012B03D07B69222B40F08D80BB68002B95
:10446C0002D0FB88002B01D1012385E0FB6893F877
:10447C003830012B01D102237EE0FB68012283F846
:10448C003820FB680022DA63FB6893F83930DBB222
:10449C00222B04D1FB68322283F8392003E0FB681D
:1044AC00122283F83920FB68FA889A84FB68FA8810
:1044BC00DA843CE0FB68DB8C013B9AB2FB68DA8463
:1044CC00FB689B68B3F5805F1FD13B68002280219D
:1044DC00F86800F067FE0346002B01D003234BE085
:1044EC00BB683B61FB681B683A691288C2F308021F
:1044FC005A60FB681B69002B03D1BB680233BB609D
:10450C0015E0BB680133BB6011E03B6800228021E1
:10451C00F86800F047FE0346002B01D003232BE084
:10452C00FB681A68BB68591CB9601B785360FB6840
:10453C00DB8C002BBED13B6800224021F86800F0D8
:10454C0031FE0346002B01D0032315E0FB6893F8E2
:10455C003930DBB2322B04D1FB68222283F83920AC
:10456C0003E0FB68012283F83920FB68002283F802
:10457C003820002300E0022318461837BD4680BDC2
:10458C0080B586B000AFF860B9603B601346FB8025
:10459C0000237B61FB6893F83930DBB27B617B696C
:1045AC00012B03D07B69122B40F09D80BB68002B44
:1045BC0002D0FB88002B01D1012395E0FB6893F816
:1045CC003830012B01D102238EE0FB68012283F8E5
:1045DC003820FB680022DA63FB6893F83930DBB2D1
:1045EC00122B04D1FB68322283F8392003E0FB68DC
:1045FC00222283F83920FB68FA889A85FB68FA88AE
:10460C00DA8557E0FB68DB8D013B9AB2FB68DA85F3
:10461C00FB689B68B3F5805F29D13B6800222021A1
:10462C00F86800F0BFFD0346002B01D003235BE0CC
:10463C00BB683B61FB681B69002B0CD1FB681B68DA
:10464C005B689BB2C3F308039AB23B691A80BB68E0
:10465C000233BB602EE0FB681B685B689BB2DBB26D
:10466C009AB23B691A80BB680133BB6022E03B689D
:10467C0000222021F86800F095FD0346002B01D0A4
:10468C00032331E0FB681B69002B08D1BB685A1C63
:10469C00BA60FA6812685268D2B21A700AE0BB6843
:1046AC005A1CBA60FA6812685268D2B202F07F02E1
:1046BC00D2B21A70FB68DB8D002BA3D1FB6893F888
:1046CC003930DBB2322B04D1FB68122283F839204B
:1046DC0003E0FB68012283F83920FB68002283F891
:1046EC003820002300E0022318461837BD4680BD51
:1046FC0080B487B000AFF860B9601346FB8000232C
:10470C007B61FB6893F83930DBB27B617B69012BF1
:10471C0002D07B69222B3BD1BB68002B02D0FB88DB
:10472C00002B01D1012334E0FB6893F83830012BC6
:10473C0001D102232DE0FB68012283F83820FB68AD
:10474C00BA681A62FB68FA889A84FB68FA88DA8479
:10475C00FB680022DA63FB6893F83930DBB2222B5A
:10476C0004D1FB68322283F8392003E0FB68122263
:10477C0083F83920FB68002283F83820FB681B681B
:10478C00FA681268D26842F08002DA60002300E016
:10479C00022318461C37BD465DF8047B704700BFEA
:1047AC0080B487B000AFF860B9601346FB8000237B
:1047BC007B61FB6893F83930DBB27B617B69012B41
:1047CC0002D07B69122B4BD1BB68002B02D0FB882B
:1047DC00002B01D1012344E0FB6893F83830012B06
:1047EC0001D102233DE0FB68012283F83820FB68ED
:1047FC00BA689A62FB68FA889A85FB68FA88DA8547
:10480C00FB680022DA63FB6893F83930DBB2122BB9
:10481C0004D1FB68322283F8392003E0FB682222A2
:10482C0083F83920FB681B68FA681268D26842F476
:10483C008072DA60FB681B68FA681268526942F091
:10484C0001025A61FB68002283F83820FB681B6860
:10485C00FA681268D26842F02002DA60002300E0A5
:10486C00022318461C37BD465DF8047B704700BF19
:10487C0080B586B000AFF860B9601346FB800023AA
:10488C007B61FB6893F83930DBB27B617B69012B70
:10489C0002D07B69222B5AD1BB68002B02D0FB883B
:1048AC00002B01D1012353E0FB6893F83830012B26
:1048BC0001D102234CE0FB68012283F83820BA684E
:1048CC00FB681A62FB68FA889A84FB68FA88DA84B7
:1048DC00FB680022DA63FB6893F83930DBB2222BD9
:1048EC0004D1FB68322283F8392003E0FB681222E2
:1048FC0083F83920FB681B6B174ADA63FB681B6B68
:10490C00164A1A64FB681B6B154A9A6407F1080374
:10491C003B61FB68186B3B691968FB681B680433C7
:10492C001A46FB8808F06CF9FB681B686FF04002B4
:10493C001A60FB681B68FA681268526942F08002C0
:10494C005A61FB68002283F83820002300E0022320
:10495C0018461837BD4680BD89500008DD50000848
:10496C007551000880B586B000AFF860B960134689
:10497C00FB8000237B61FB6893F83930DBB27B61F1
:10498C007B69012B02D07B69122B52D1BB68002BA7
:10499C0002D0FB88002B01D101234BE0FB6893F87C
:1049AC003830012B01D1022344E0FB68012283F84B
:1049BC003820BA68FB689A62FB68FA889A85FB68AB
:1049CC000022DA63FB6893F83930DBB2122B04D186
:1049DC00FB68322283F8392003E0FB68222283F83B
:1049EC003920FB685B6B154ADA63FB685B6B144A16
:1049FC001A64FB685B6B134A9A6407F108033B610A
:104A0C00FB68586BFB681B68043319463B691A68D2
:104A1C00FB8808F0F5F8FB681B68FA6812685269A5
:104A2C0042F040025A61FB68002283F838200023D0
:104A3C0000E0022318461837BD4680BDF950000827
:104A4C00595100087551000880B483B000AF7860EC
:104A5C007B6893F83830012B01D102233CE07B6852
:104A6C00012283F838207B6893F83930DBB2122BA3
:104A7C0008D17B681B687A681268526922F0800240
:104A8C005A6124E07B6893F83930DBB2222B08D1D1
:104A9C007B681B687A681268526922F040025A617E
:104AAC0015E07B6893F83930DBB2322B0FD17B6881
:104ABC001B687A681268526922F080025A617B681E
:104ACC001B687A681268526922F040025A617B684E
:104ADC00002283F83820002318460C37BD465DF8B9
:104AEC00047B704780B485B000AF78607B6893F826
:104AFC003830012B01D1022352E07B68012283F86C
:104B0C0038207B6893F83930DBB2122B08D17B68E4
:104B1C001B687A681268526942F080025A613AE066
:104B2C007B6893F83930DBB2222B13D10023FB6066
:104B3C007B681B681B68FB607B681B685B68FB60A1
:104B4C00FB687B681B687A681268526942F0400205
:104B5C005A6120E07B6893F83930DBB2322B1AD1E2
:104B6C000023BB607B681B681B68BB607B681B6891
:104B7C005B68BB60BB687B681B687A6812685269AB
:104B8C0042F080025A617B681B687A68126852692D
:104B9C0042F040025A617B68002283F838200023DF
:104BAC0018461437BD465DF8047B704780B582B05B
:104BBC0000AF78607B681B687A681268526922F0D3
:104BCC0080025A617B681B687A681268526922F00D
:104BDC0040025A617B681B6B002B04D07B681B6BFB
:104BEC00184608F04FF87B685B6B002B04D07B6891
:104BFC005B6B184608F046F87B68012283F8392075
:104C0C00002318460837BD4680BD00BF80B588B06C
:104C1C0000AF78600023FB610023BB617B681B68DD
:104C2C001B6803F00103002B14BF01230023DBB22C
:104C3C00FB617B681B68DB6803F48073BB61FB69F9
:104C4C00002B13D0BB69002B10D000237B617B6839
:104C5C001B681B687B617B681B685B687B617B697D
:104C6C007B68DB6B43F001027B68DA637B681B6853
:104C7C001B6803F00203002B14BF01230023DBB2DB
:104C8C00FB617B681B685B6903F00103BB61FB691B
:104C9C00002B13D0BB69002B10D000233B617B6829
:104CAC001B681B683B617B681B685B683B613B69ED
:104CBC007B68DB6B43F004027B68DA637B681B6800
:104CCC001B6803F00403002B14BF01230023DBB289
:104CDC00FB617B681B685B6903F00103BB61FB69CB
:104CEC00002B13D0BB69002B10D00023FB607B681A
:104CFC001B681B68FB607B681B685B68FB60FB6860
:104D0C007B68DB6B43F002027B68DA637B681B68B1
:104D1C001B6803F00803002B14BF01230023DBB234
:104D2C00FB617B681B685B6903F00103BB61FB697A
:104D3C00002B13D0BB69002B10D00023BB607B6809
:104D4C001B681B68BB607B681B685B68BB60BB68CF
:104D5C007B68DB6B43F008027B68DA637B681B685B
:104D6C001B6803F02003002B14BF01230023DBB2CC
:104D7C00FB617B681B68DB6803F02003BB61FB698C
:104D8C00002B05D0BB69002B02D0786800F024FB07
:104D9C007B681B681B6803F08003002B14BF012386
:104DAC000023DBB2FB617B681B68DB6803F08003CC
:104DBC00BB61FB69002B05D0BB69002B02D0786866
:104DCC0000F08AFA7B681B681B6803F04003002B19
:104DDC0014BF01230023DBB2FB617B681B68DB681B
:104DEC0003F04003BB61FB69002B05D0BB69002BB2
:104DFC0002D0786800F0CCFA7B68DB6B002B06D015
:104E0C007B68012283F83920786800F02DF800BF08
:104E1C002037BD4680BD00BF80B483B000AF786042
:104E2C0000BF0C37BD465DF8047B704780B483B07F
:104E3C0000AF786000BF0C37BD465DF8047B70474F
:104E4C0080B483B000AF786000BF0C37BD465DF80E
:104E5C00047B704780B483B000AF786000BF0C3720
:104E6C00BD465DF8047B704780B483B000AF7860BA
:104E7C0000BF0C37BD465DF8047B704780B483B02F
:104E8C0000AF78607B6893F83830012B01D1022396
:104E9C0018E07B68012283F838207B68022283F8B3
:104EAC0039207B681B687A681268D26842F001026C
:104EBC00DA607B68012283F839207B68002283F852
:104ECC003820002318460C37BD465DF8047B70472C
:104EDC0080B483B000AF78607B6893F83830012BD6
:104EEC0001D1022318E07B68012283F838207B680B
:104EFC00022283F839207B681B687A681268D268B2
:104F0C0042F00202DA607B68012283F839207B6868
:104F1C00002283F83820002318460C37BD465DF874
:104F2C00047B704780B483B000AF78607B6893F8E3
:104F3C003830012B01D1022318E07B68012283F861
:104F4C0038207B68022283F839207B681B687A68DA
:104F5C001268D26822F00202DA607B68012283F8C0
:104F6C0039207B68002283F83820002318460C3740
:104F7C00BD465DF8047B704780B485B000AF7860A7
:104F8C000023FB607B6893F83830012B01D102239E
:104F9C0020E07B68012283F838207B68022283F8AA
:104FAC0039207B681B68DB68FB60FB6823F00C0313
:104FBC00FB60FB6843F00803FB607B681B68FA68C6
:104FCC00DA607B68012283F839207B68002283F841
:104FDC003820002318461437BD465DF8047B704713
:104FEC0080B485B000AF78600023FB607B6893F8D9
:104FFC003830012B01D1022320E07B68012283F899
:10500C0038207B68022283F839207B681B68DB68B8
:10501C00FB60FB6823F00C03FB60FB6843F00403AC
:10502C00FB607B681B68FA68DA607B68012283F896
:10503C0039207B68002283F8382000231846143767
:10504C00BD465DF8047B704780B483B000AF7860D8
:10505C007B6893F83930DBB218460C37BD465DF8E7
:10506C00047B704780B483B000AF78607B68DB6BE7
:10507C0018460C37BD465DF8047B704780B584B08C
:10508C0000AF78607B689B6BFB607B681B681B6860
:10509C0003F48073002B13D1FB680022DA84FB68C5
:1050AC001B68FA681268526922F080025A61FB6828
:1050BC001B68FA681268D26842F04002DA6002E0BB
:1050CC00F868FFF7A9FE00BF1037BD4680BD00BFD2
:1050DC0080B584B000AF78607B689B6BFB60F86830
:1050EC00FFF7A4FE00BF1037BD4680BD80B584B06D
:1050FC0000AF78607B689B6BFB607B681B681B68F0
:10510C0003F48073002B19D1FB680022DA85FB684D
:10511C001B68FA681268526922F040025A61FB68F7
:10512C0093F83930DBB2322B04D1FB68122283F8AE
:10513C00392003E0FB68012283F83920F868FFF777
:10514C007FFE00BF1037BD4680BD00BF80B584B068
:10515C0000AF78607B689B6BFB60F868FFF77AFEAA
:10516C0000BF1037BD4680BD80B584B000AF7860FD
:10517C007B689B6BFB60FB680022DA85FB68002276
:10518C00DA84FB68012283F83920FB68DB6B43F07F
:10519C001002FB68DA63F868FFF766FE00BF103791
:1051AC00BD4680BD80B586B000AFF860B9603B608D
:1051BC001346FB7100237B6104F0F2FA7861FB79F2
:1051CC00002B7BD138E03B68B3F1FF3F34D03B6818
:1051DC00002B07D004F0E4FA02467B69D21A3B6834
:1051EC009A4229D9FB681B68FA681268D26822F0C7
:1051FC008002DA60FB681B68FA681268D26822F0D9
:10520C002002DA60FB681B68FA681268D26822F424
:10521C008072DA60FB681B68FA681268526922F0C7
:10522C0001025A61FB68012283F83920FB680022D5
:10523C0083F8382003234AE0FB681B681A68BB68B4
:10524C001A40BB689A42BED140E03B68B3F1FF3FC5
:10525C0034D03B68002B07D004F0A2FA02467B69DD
:10526C00D21A3B689A4229D9FB681B68FA68126803
:10527C00D26822F08002DA60FB681B68FA68126858
:10528C00D26822F02002DA60FB681B68FA681268A8
:10529C00D26822F48072DA60FB681B68FA681268C4
:1052AC00526922F001025A61FB68012283F839200D
:1052BC00FB68002283F83820032308E0FB681B6896
:1052CC001A68BB681A40BB689A42BED000231846C5
:1052DC001837BD4680BD00BF80B485B000AF786084
:1052EC000023FB607B6893F83930DBB2FB60FB6812
:1052FC00122B02D0FB68322B43D17B689B68B3F531
:10530C00805F19D17B681B6ABB607B681B68BA68BD
:10531C001288C2F308025A607B681B69002B05D106
:10532C007B681B6A9A1C7B681A620EE07B681B6A9E
:10533C005A1C7B681A6208E07B681A687B681B6AD7
:10534C00581C796808621B7853607B68DB8C013BC6
:10535C009AB27B68DA847B68DB8C002B0FD17B687C
:10536C001B687A681268D26822F08002DA607B6867
:10537C001B687A681268D26842F04002DA60002337
:10538C0000E0022318461437BD465DF8047B7047D5
:10539C0080B582B000AF78607B681B687A68126851
:1053AC00D26822F04002DA607B6893F83930DBB2C5
:1053BC00322B04D17B68222283F8392003E07B68EE
:1053CC00012283F839207868FFF726FD0023184660
:1053DC000837BD4680BD00BF80B584B000AF786093
:1053EC000023FB607B6893F83930DBB2FB60FB6811
:1053FC00222B02D0FB68322B7CD17B689B68B3F5E7
:10540C00805F23D17B689B6ABB607B681B69002B28
:10541C000ED17B681B685B689BB2C3F308039AB21E
:10542C00BB681A807B689B6A9A1C7B689A6229E02D
:10543C007B681B685B689BB2DBB29AB2BB681A8054
:10544C007B689B6A5A1C7B689A621BE07B681B69B1
:10545C00002B0AD17B689B6A591C7A6891627A6826
:10546C0012685268D2B21A700CE07B689B6A591CA5
:10547C007A6891627A6812685268D2B202F07F023E
:10548C00D2B21A707B68DB8D013B9AB27B68DA85ED
:10549C007B68DB8D002B2BD17B681B687A681268CC
:1054AC00D26822F02002DA607B6893F83930DBB2E4
:1054BC00322B04D17B68122283F8392013E07B68ED
:1054CC001B687A681268D26822F48072DA607B6892
:1054DC001B687A681268526922F001025A617B6873
:1054EC00012283F839207868FFF7AAFC002302E038
:1054FC00002300E0022318461037BD4680BD00BFD4
:10550C00F0B585B000AF78600023FB607B681B684A
:10551C001B69FB60FB6823F44053FB607B68DB6812
:10552C00FA681343FB607B681B68FA681A617B6836
:10553C001B68DB68FB60FB6823F4164323F00C0349
:10554C00FB607B689A687B681B691A437B685B69A4
:10555C001A437B68DB691343FA681343FB607B686F
:10556C001B68FA68DA607B681B685B69FB60FB6828
:10557C0023F44073FB607B689B69FA681343FB6000
:10558C007B681B68FA685A617B68DB69B3F5004F6E
:10559C0040F08C807B681B688C4A934204D07B68FB
:1055AC001B688B4A934240D17B681C6804F04CFF0B
:1055BC00024613469B0013449A001A447B685B68AE
:1055CC005B00B2FBF3F3834AA2FB03235B091D01CF
:1055DC0004F03AFF024613469B0013449A001A4407
:1055EC007B685B685B00B2FBF3F604F02DFF0246B0
:1055FC0013469B0013449A001A447B685B685B005B
:10560C00B2FBF3F3734AA2FB03235B09642202FB94
:10561C0003F3F31A1B0132336E4AA2FB03235B091B
:10562C0003F00F032B43A360CCE07B681C6804F0F1
:10563C00E9FE024613469B0013449A001A447B6809
:10564C005B685B00B2FBF3F3624AA2FB03235B09CA
:10565C001D0104F0D7FE024613469B0013449A002A
:10566C001A447B685B685B00B2FBF3F604F0CAFE7D
:10567C00024613469B0013449A001A447B685B68ED
:10568C005B00B2FBF3F3534AA2FB03235B096422D6
:10569C0002FB03F3F31A1B0132334E4AA2FB032322
:1056AC005B0903F00F032B43A3608BE07B681B6843
:1056BC00464A934204D07B681B68454A934240D1CA
:1056CC007B681C6804F0C0FE024613469B00134422
:1056DC009A001A447B685B689B00B2FBF3F33D4A6B
:1056EC00A2FB03235B091D0104F0AEFE0246134628
:1056FC009B0013449A001A447B685B689B00B2FBC6
:10570C00F3F604F0A1FE024613469B0013449A00E4
:10571C001A447B685B689B00B2FBF3F32D4AA2FB37
:10572C0003235B09642202FB03F3F31A1B013233DC
:10573C00284AA2FB03235B0903F00F032B43A3604E
:10574C0040E07B681C6804F05DFE024613469B003B
:10575C0013449A001A447B685B689B00B2FBF3F31A
:10576C001C4AA2FB03235B091D0104F04BFE0246FD
:10577C0013469B0013449A001A447B685B689B0099
:10578C00B2FBF3F604F03EFE024613469B001344B4
:10579C009A001A447B685B689B00B2FBF3F30D4ADA
:1057AC00A2FB03235B09642202FB03F3F31A1B0124
:1057BC003233084AA2FB03235B0903F00F032B438C
:1057CC00A360FFE700BF1437BD46F0BD00100140D9
:1057DC00001401401F85EB5180B582B000AF78609A
:1057EC007B68002B01D1012357E07B6893F8513083
:1057FC00DBB2002B06D17B68002283F8502078683E
:10580C0006F01EFF7B68022283F851207B681B6820
:10581C007A681268126822F040021A607B681B6872
:10582C007A6851687A68926811437A68D268114331
:10583C007A68126911437A68526911437A689269DD
:10584C0002F4007211437A68D26911437A68126AC1
:10585C0011437A68926A0A431A607B681B687A68FB
:10586C009269120C02F004017A68526A0A435A6077
:10587C007B681B687A68D26A1A617B681B687A68D5
:10588C001268D26922F40062DA617B6800225A65E0
:10589C007B68012283F85120002318460837BD4647
:1058AC0080BD00BF80B582B000AF78607B68002BF4
:1058BC0001D1012316E07B681B687A6812681268B4
:1058CC0022F040021A60786806F0ECFE7B68002239
:1058DC005A657B68002283F851207B68002283F88C
:1058EC005020002318460837BD4680BD80B483B0D5
:1058FC0000AF786000BF0C37BD465DF8047B704785
:10590C0080B483B000AF786000BF0C37BD465DF843
:10591C00047B704780B586B000AFF860B9603B601F
:10592C001346FB80FB6893F85130DBB2012B40F03F
:10593C002A81BB68002B02D0FB88002B01D10123EC
:10594C0022E1FB6893F85030012B01D102231BE1BB
:10595C00FB68012283F85020FB68122283F8512047
:10596C00FB6800225A65FB68BA681A63FB68FA8800
:10597C009A86FB68FA88DA86FB680022DA64FB6890
:10598C0000229A64FB6800229A87FB680022DA875F
:10599C00FB689B6AB3F5005F0FD1FB681B68FA6864
:1059AC001268126822F400521A60FB681B68FA68CD
:1059BC001268126842F400521A60FB689B68B3F5D7
:1059CC00004F07D1FB681B68FA681268126842F432
:1059DC0080421A60FB681B681B6803F04003002BB5
:1059EC0007D1FB681B68FA681268126842F0400223
:1059FC001A60FB68DB68002B43D1FB685B68002BEB
:105A0C0003D0FB68DB8E012B29D1FB681A68FB687D
:105A1C001B6B581CF96808631B78D360FB68DB8E22
:105A2C00013B9AB2FB68DA8619E03B68002202213E
:105A3C00F86801F0CBFD0346002B01D00323A3E053
:105A4C00FB681A68FB681B6B581CF96808631B78A9
:105A5C00D360FB68DB8E013B9AB2FB68DA86FB688D
:105A6C00DB8E002BE1D1FB689B6AB3F5005F4FD155
:105A7C00FB681B68FA681268126842F480521A605C
:105A8C0046E0FB685B68002B03D0FB68DB8E012BC8
:105A9C002DD1FB681B68FA68126B1288DA60FB6800
:105AAC001B6B9A1CFB681A63FB68DB8E013B9AB27A
:105ABC00FB68DA861BE03B6800220221F86801F0E3
:105ACC0085FD0346002B01D003235DE0FB681B68BA
